:1000000016C1000041C100003FC100003DC1000019
:100010003BC1000039C1000037C1000035C10000FC
:1000200033C1000031C100002FC100002DC100000C
:100030002BC1000029C1000027C1000025C100001C
:1000400023C100000C943B101FC100001DC1000023
:100050001BC1000019C1000017C100000C9455110C
:1000600013C100000C9480130C94D4140DC1000033
:100070000BC1000009C1000007C1000005C100005C
:100080000C940E1001C10000FFC00000FDC0000074
:100090000C94C0130C941315F7C00000F5C00000B9
:1000A000F3C00000F1C000000C94E10FEDC00000AF
:1000B000EBC00000E9C00000E7C000000C94B40FE2
:1000C000E3C00000E1C00000DFC000000C94001499
:1000D0000C945215D9C000000C9440140C94911546
:1000E000D3C000001804210432045B0468047904BE
:1000F00088049704BC04E5040C05330560058705F6
:10010000B805E505160600002100240027002A0096
:100110002D003000330001010000040107010A0135
:1001200000002200250028002B002E0031003400A2
:1001300002010000050108010B010000200023005E
:10014000260029002C002F003200000100000301CE
:10015000060109010505050507050808080802024A
:1001600002020A0A08080404040401010101010151
:1001700001010303030303030303040707070C0C34
:100180000C0C0C0C0C0C02020202060606060606FB
:1001900006060B0B0B0B0B0B0B0B010210202008A0
:1001A00008102040102040800201020108040201D2
:1001B0000102040810204080804020100804020141
:1001C000800402018040201008040201080402019A
:1001D0000102040810204080010204081020408021
:1001E0000000090A02080B0C0D07060304010000B9
:1001F00000000000000000000000000000000000FF
:1002000000000000000000000000000011100F00BE
:1002100000000000000000000000000000000000DE
:100220000000000000001302851001170E021124C7
:100230001FBECFEFD1E2DEBFCDBF00E00CBF16E0A6
:10024000A0E0B2E0EAE8FCE300E00BBF02C00790E8
:100250000D92AE37B107D9F71BBE1AE0AEE7B6E094
:1002600001C01D92AB39B107E1F712E0CCE2D2E058
:1002700004C02297FE010E94351EC632D107C9F77D
:100280000E9438180C94391EBBCE1F93FC0199278D
:100290008827BC01E89411911032E9F3193010F06D
:1002A0001E30C8F31B3249F01D3241F4689405C07A
:1002B00042D0610F711D811D911D119110531A3093
:1002C000B8F33EF490958095709561957F4F8F4F70
:1002D0009F4F1F910895FB01DC0102C001900D9218
:1002E00041505040D8F70895FB01DC0101900D9278
:1002F0000020E1F70895FB019F01E8944230C4F02B
:100300004532B4F44A3029F497FB1EF49095819558
:100310009F4F642F77270E941F1E805D8A330CF049
:10032000895D8193CB010097A1F716F45DE25193AB
:100330001082C90115C0592F482F372F262F660F5D
:10034000771F881F991F660F771F881F991F620FDD
:10035000731F841F951F660F771F881F991F0895AD
:10036000DC01FC01672F71917723E1F7329704C01C
:100370007C916D9370836291AE17BF07C8F30895A7
:10038000CF93DF938130910569F56F5F7F4F09F05F
:1003900042C08DEA96E060E072E00E943E1B83EB73
:1003A00096E060E072E00E943E1B89EB96E060E020
:1003B00072E00E943E1B8FEB96E060E072E00E94CC
:1003C0003E1B85EC96E060E072E00E943E1BC0EDB3
:1003D000D6E0CE010E94E00C239687E0C630D80715
:1003E000C1F719C0892BB9F46F5F7F4FA1F485EC79
:1003F00096E00E948A1B8FEB96E00E948A1B89EB95
:1004000096E00E948A1B83EB96E00E948A1B8DEA8D
:1004100096E00E948A1BDF91CF91089580E090E0E2
:100420006FEF7FEFADCF81E090E06FEF7FEFA8CF70
:100430002F923F924F925F926F927F928F929F92F4
:10044000AF92BF92CF92DF92EF92FF920F931F93E2
:10045000CF93DF931C012B017A010E949D116093C1
:100460007F067093800680938106909382068101B7
:10047000C0E0D0E0F801808191818D9785369105AB
:1004800018F081E090E09BC18FE09AE061E072E0BB
:100490000E94DF19F801619171918F018FE09AE05C
:1004A0004AE050E00E94C0192196C231D10511F7EF
:1004B0003701882477FC8094982C0E949D1120910C
:1004C0007F06309180064091810650918206621B22
:1004D000730B840B950B661577058805990568F3F2
:1004E0000E949D1160937F06709380068093810621
:1004F0009093820652017101CC24DD24809108077B
:100500008823B9F0809164060E94661290930707D1
:1005100080930607803291051CF481E090E005C0CD
:1005200025E0959587952A95E1F790933B06809372
:100530003A06F70100811181E601CC0FDD1FCC0DD9
:10054000DD1DC053D94FCE010E94850D9801281B97
:10055000390B37FF03C0309521953F4F3093840608
:100560002093830680913A0690913B06281739071D
:1005700034F4232B21F0F7016081718112C0F7015F
:1005800000811181CE010E94850D801791076CF4C6
:10059000CE010E94850D60913A0670913B06680F6E
:1005A000791FCE010E94D90D17C0F701008111817A
:1005B000CE010E94850D081719075CF4CE010E9438
:1005C000850D20913A0630913B06BC01621B730BEE
:1005D000E8CFF501118210820894C11CD11C82E081
:1005E00090E0E80EF91EA80EB91E92E1C916D104DA
:1005F00009F084CF40E050E020E030E0F201E20F6B
:10060000F31F80819181480F591F2E5F3F4F243285
:100610003105A1F7452B09F050CF8FE09AE062E158
:1006200072E00E94DF198FE09AE063E272E00E94BC
:10063000DF1980ED96E00E94850DBC018FE09AE005
:100640004AE050E00E94C01983ED96E00E94850DBB
:10065000BC018FE09AE04AE050E00E94C01986EDAC
:1006600096E00E94850DBC018FE09AE04AE050E0E0
:100670000E94C01989ED96E00E94850DBC018FE0B3
:100680009AE04AE050E00E94C0198CED96E00E948A
:10069000850DBC018FE09AE04AE050E00E94C0194D
:1006A0008FED96E00E94850DBC018FE09AE04AE054
:1006B00050E00E94C01982EE96E00E94850DBC01B8
:1006C0008FE09AE04AE050E00E94C01985EE96E083
:1006D0000E94850DBC018FE09AE04AE050E00E9444
:1006E000C01988EE96E00E94850DBC018FE09AE06B
:1006F0004AE050E00E94C0198BEE96E00E94850D02
:10070000BC018FE09AE04AE050E00E94C0198EEEF2
:1007100096E00E94850DBC018FE09AE04AE050E02F
:100720000E94C01981EF96E00E94850DBC018FE008
:100730009AE04AE050E00E94C01984EF96E00E94DF
:10074000850DBC018FE09AE04AE050E00E94C0199C
:1007500087EF96E00E94850DBC018FE09AE04AE0A9
:1007600050E00E94C0198AEF96E00E94850DBC01FE
:100770008FE09AE04AE050E00E94C0198DEF96E0C9
:100780000E94850DBC018FE09AE04AE050E00E9493
:10079000C01980E097E00E94850DBC018FE09AE0CF
:1007A0004AE050E00E94C01983E097E00E94850D66
:1007B000BC018FE09AE04AE050E00E94C019DF914E
:1007C000CF911F910F91FF90EF90DF90CF90BF904E
:1007D000AF909F908F907F906F905F904F903F90E1
:1007E0002F900895EF92FF920F931F93CF93DF9373
:1007F000EC017B01142F052F8FE09AE068E372E093
:100800000E94DF198FE09AE0612F702F4AE050E0DC
:100810000E94C019E12FF02FE131F10508F034C238
:10082000EE58FF4FEE0FFF1F0590F491E02D199445
:100830008AE590E0998388839B838A839D838C8358
:1008400029C28AE590E09983888383E790E09B83BF
:100850008A8384E690E09D838C838FE09AE061E553
:1008600072E00EC08AE590E09983888381E990E088
:100870009B838A839D838C838FE09AE06BE672E092
:100880000E94DF19688179818FE09AE04AE050E0A8
:100890000E94C0196A817B818FE09AE04AE050E0B3
:1008A0000E94C0196C817D818FE09AE04AE050E09F
:1008B0000E94C019EFC181E990E0998388839B83EE
:1008C0008A839D838C838FE09AE065E872E0D8CFBD
:1008D00081E990E09983888383E790E09B838A8312
:1008E00084E690E09D838C838FE09AE06FE972E06C
:1008F000C7CF2DE230E03983288381E990E09B83E4
:100900008A833D832C838FE09AE069EB72E0B8CF55
:1009100081E990E0998388839B838A838DE290E0CC
:100920009D838C838FE09AE063ED72E0A9CF8AE526
:1009300090E09983888327E830E03B832A833D83D6
:100940002C839F838E83398728873B872A879D87BF
:100950008C873F872E87398B288B9B8B8A8B2DE248
:1009600030E03D8B2C8B3F8B2E8B998F888F3B8F6C
:100970002A8F3D8F2C8FF5C04AE550E0598348837C
:1009800087E890E09B838A832DE230E03D832C83CF
:100990005F834E83998788879B878A875D874C878B
:1009A0009F878E87398B288B5B8B4A8B3D8B2C8B5B
:1009B0003F8B2E8B598F488F3B8F2A8F81E990E098
:1009C0009D8F8C8F5F8F4E8FCEC04AE550E059834C
:1009D000488387E890E09B838A839D838C835F8331
:1009E0004E83998788872DE230E03B872A875D8791
:1009F0004C879F878E87998B888B5B8B4A8B3D8B2F
:100A00002C8B81E990E09F8B8E8B598F488F3B8F89
:100A10002A8F3D8F2C8F4FC08AE590E09983888381
:100A200027E830E03B832A839D838C839F838E83DA
:100A3000398728879B878A879D878C873F872E8762
:100A4000998B888B9B8B8A8B2DE230E03D8B2C8B96
:100A50009F8B8E8B998F888F3B8F2A8F9D8F8C8F4A
:100A60009F8F8E8F2AC04AE550E05983488329E63C
:100A700030E03B832A838DE290E09D838C835F830B
:100A80004E83398728879B878A875D874C873F8776
:100A90002E87998B888B5B8B4A8B25E530E03D8BCD
:100AA0002C8B81E990E09F8B8E8B598F488F3B8FE9
:100AB0002A8F9D8F8C8F5F8F4E8F39A328A324C0E0
:100AC0008AE590E0998388839B838A839D838C83C6
:100AD0009F838E83998788879B878A879D878C874A
:100AE0009F878E87998B888B9B8B8A8B9D8B8C8B1A
:100AF0009F8B8E8B998F888F9B8F8A8F9D8F8C8FEA
:100B00009F8F8E8F99A388A39BA38AA3C3C08CE3D6
:100B100090E09983888387E890E09B838A839D8314
:100B20008C834AE550E05F834E83998788879B8753
:100B30008A872DE730E03D872C879F878E87998BAA
:100B4000888B9B8B8A8B2DE230E03D8B2C8B3F8BEF
:100B50002E8B598F488F3B8F2A8F3D8F2C8F8BE4A4
:100B600090E09F8F8E8F39A328A33BA32AA392C026
:100B70008AE590E09983888327E830E03B832A83E5
:100B80003D832C834DE250E05F834E833987288775
:100B90003B872A878DE790E09D878C873F872E874C
:100BA000398B288B81E990E09B8B8A8B5D8B4C8BFA
:100BB0005F8B4E8B87E390E0998F888F5B8F4A8F96
:100BC0005D8F4C8F84E690E02AC04DE250E059835F
:100BD000488327E830E03B832A833D832C838EE6DD
:100BE00090E09F838E83398728873B872A878AE511
:100BF00090E09D878C873F872E87398B288B9B8B36
:100C00008A8B5D8B4C8B5F8B4E8B81E990E0998F4B
:100C1000888F5B8F4A8F5D8F4C8F8BE490E09F8F26
:100C20008E8F59A348A35BA34AA334C02DE230E0C2
:100C30003983288349E650E05B834A833D832C83D4
:100C40003F832E83598748873B872A878CE390E030
:100C50009D878C875F874E87398B288B81E990E051
:100C60009B8B8A8B25E530E03D8B2C8B9F8B8E8B6D
:100C7000998F888F3B8F2A8F9D8F8C8F9F8F8E8F20
:100C800039A328A39BA38AA38FE09AE06DEE72E0BC
:100C90000E94DF1981E090E0F701918380839383C4
:100CA00082839583848397838683918780879387C4
:100CB00082879587848797878687918B808B938B94
:100CC000828B958B848B978B868B918F808F938F64
:100CD000828F958F848F978F868F91A380A393A304
:100CE00082A34091380650913906CE01B701A0DBAE
:100CF000DF91CF911F910F91FF90EF900895EF92A8
:100D0000FF920F931F93CF93DF93F82EEB012BE20B
:100D1000821749F08DE2F81631F02CE3F21619F043
:100D20008EE3F81689F58E01000F111F0C0F1D1FA1
:100D30000053194FC801E9D62BE2F21619F02CE343
:100D4000F21619F4EC01259608C02DE2F21619F0FE
:100D50002EE3F21611F4EC012597CE018D9785361E
:100D6000910558F4C801BE0124D78FE09AE0BE0176
:100D70004AE050E00E94C01950C08FE09AE06FEF47
:100D800072E00E94DF1949C08DEA96E00E94371A8E
:100D90007B018C01CB018D978536910550F58FE055
:100DA0009AE06FE073E00E94DF198FE09AE06DEA4D
:100DB00076E00E94A2188FE09AE060E072E00E9464
:100DC000DF19CE01880F991F8C0F9D1F8053994FFB
:100DD000B701EFD61092CC068DEA96E060E072E0A3
:100DE0000E94561B8FE09AE06DEA76E00E94A218FE
:100DF00014C08FE09AE06DEA76E00E94A2188FE0BE
:100E00009AE06BE173E00E94DF191092CC068DEA44
:100E100096E060E072E00E94561BDF91CF911F9137
:100E20000F91FF90EF9008950F931F93CF93DF934F
:100E30008C3289F48091850690918606009729F47A
:100E400080913E0690913F0601C0019790938606DF
:100E50008093850618C08E32B1F4209185063091BA
:100E6000860680913E0690913F062817390729F49F
:100E7000109286061092850606C02F5F3F4F309372
:100E80008606209385062091850630918606C90145
:100E9000880F991F820F931F8053994F36D6EC010C
:100EA0008D978036910508F04BC08FE09AE06EE296
:100EB00073E00E94DF198FE09AE0BE014AE050E043
:100EC0000E94C0198E010B5F1F4F20918506309143
:100ED0008606C901880F991F820F931F8053994F6F
:100EE000B80167D68FE09AE06CE373E00E94DF19E7
:100EF0008FE09AE0B8014AE050E00E94C0196AEF22
:100F000070E080E090E00E94AB1120918506309166
:100F10008606C901880F991F820F931F8053994F2E
:100F2000BE0147D68FE09AE069E473E00E94DF19C2
:100F30008FE09AE0BE014AE050E00E94C01922C052
:100F40002091850630918606C901880F991F820F6E
:100F5000931F8053994F6CE870E02BD66AEF70E0D6
:100F600080E090E00E94AB112091850630918606CA
:100F7000C901880F991F820F931F8053994F61E910
:100F800070E017D68FE09AE06BE573E00E94DF19FE
:100F900060918506709186068FE09AE04AE050E005
:100FA0000E94C0196AEF70E080E090E00E94AB11EF
:100FB000DF91CF911F910F9108952F923F924F9201
:100FC0005F926F927F928F929F92AF92BF92CF92D9
:100FD000DF92EF92FF920F931F93DF93CF93CDB7E2
:100FE000DEB7AF970FB6F894DEBF0FBECDBF1C01C2
:100FF0005E010894A11CB11CC5016CE673E00E945F
:101000003E1B37E0C32ED12CCC0EDD1EC60163E79C
:1010100073E00E943E1B2DE0E22EF12CEC0EFD1E33
:10102000C70168E773E00E943E1B93E1892E912C73
:101030008C0E9D1EC4016AE773E00E943E1B8E0168
:10104000075E1F4FC80160E072E00E943E1B6624ED
:1010500077248FE1482E512C4C0E5D1EABA6BCA60A
:10106000CDA6DEA6EFA6AF2CF02EE12EB5E2CB2E5C
:10107000D12CCC0EDD1EB82C892CC301880F991FF2
:10108000860D971D8053994F40D58C01C2016BA5E9
:101090007CA50E94821BC201B3010E94FC1A6DA5AF
:1010A0007EA50E940B1BB8010E94FC1A6FA57A2D29
:1010B0000E940B1BBC018F2D9E2D0E946D1BC20137
:1010C0000E948E1B6214730491F4C6016B2D782D5F
:1010D0000E94821BC6016F2D7E2D0E940B1BBC013E
:1010E0008F2D9E2D0E946D1BC6010E948E1B8FE0CE
:1010F0009AE06F2D7E2D0E94A2180894611C711C2D
:1011000082E16816710409F0B8CF8F2D9E2D0E94E0
:101110008A1BCE0143960E948A1BCE010D960E9427
:101120008A1BCE0107960E948A1BCE0101960E945F
:101130008A1BAF960FB6F894DEBF0FBECDBFCF911E
:10114000DF911F910F91FF90EF90DF90CF90BF90B4
:10115000AF909F908F907F906F905F904F903F9057
:101160002F9008951DC38FE09AE00E948816282FC3
:1011700080937E06873631F48091850690918606AD
:101180001CDF0EC38B3611F48BE613C0823761F47B
:101190002DE088E190E00FB6F894A8958093600068
:1011A0000FBE20936000FFCF8C3211F08E3219F405
:1011B000822F3ADEF5C2843669F42091850630919B
:1011C0008606C901880F991F820F931F8053994F7C
:1011D00011D4E6C28037E9F5809108078130D9F44F
:1011E0001092080780913C0690913D0690933B0633
:1011F00080933A068FE09AE06DE773E00E94DF1972
:101200008FE09AE062E973E00E94DF1960913A068C
:1012100070913B0617C081E0809308078FE09AE049
:101220006FEA73E00E94DF198FE09AE063EC73E0ED
:101230000E94DF19809164060E94661260E270E0ED
:101240000E94CF1D8FE09AE04AE050E00E94C01952
:10125000A7C28B3231F08D3221F08C3311F08E33F6
:1012600039F46091850670918606822F48DD98C218
:10127000482F552747FD5095405350404A3051055F
:1012800008F097C28091CC06813009F056C08FE0FB
:101290009AE06FED73E00E94DF198FE09AE06DEA4B
:1012A00076E00E94A2188FE09AE060E072E00E946F
:1012B000DF198FE09AE060917E060E94B4188FE0FB
:1012C0009AE062EF73E00E94DF198DEA96E0609188
:1012D0007E060E94D81A8FE09AE06EEF73E00E94BB
:1012E000DF198FE09AE06DEA76E00E94A218809103
:1012F000B1069091B206039709F052C28FE09AE0CE
:1013000064E174E00E94DF196091850670918606A1
:1013100089E5F5DC1092CC068FE09AE06AE274E091
:101320000E94DF198FE09AE06091CC064AE050E01D
:101330000E9466198DEA96E01EC28091CD0681302A
:1013400009F06CC08FE09AE06EE374E00E94DF1950
:101350008FE09AE063EB76E00E94A2188FE09AE0BB
:1013600060E072E00E94DF198FE09AE060917E06F3
:101370000E94B4188FE09AE062EF73E00E94DF19D8
:1013800083EB96E060917E060E94D81A8FE09AE087
:1013900061E574E00E94DF198FE09AE063EB76E08C
:1013A0000E94A2188091B7069091B806039709F0A1
:1013B000F7C18FE09AE067E674E00E94DF191092AF
:1013C000CD068FE09AE06DE774E00E94DF198FE0B0
:1013D0009AE063EB76E00E94A2188FE09AE060E06A
:1013E00072E00E94DF1983EB96E00E94371A709337
:1013F0003906609338068FE09AE06CE874E00E944A
:10140000DF1960913806709139068FE09AE04AE062
:1014100050E00E94C01983EB96E0ADC18091CE06EA
:10142000813009F0C6C18FE09AE0622F0E94B418A3
:101430008FE09AE062EF73E00E94DF1989EB96E09B
:1014400060917E060E94D81A8FE09AE061EA74E00B
:101450000E94DF198FE09AE069EB76E00E94A21803
:101460008091BD069091BE06029709F099C189EB63
:1014700096E00E94371A6231710581059105CCF41E
:1014800089EB96E00E94371A709386066093850672
:101490008FE09AE068EB74E00E94DF1960918506A6
:1014A000709186068FE09AE04AE050E00E94C019F1
:1014B00006C08FE09AE060ED74E00E94DF191092A0
:1014C000CE0689EB96E057C181E08093CC068FE091
:1014D0009AE06AE274E00E94DF198FE09AE060917E
:1014E000CC064AE050E00E9466195AC12A3621F41F
:1014F00081E08093CE0654C14A30510508F05DC1A9
:101500008091CB06813009F058C18FE09AE0622FBC
:101510000E94B4188FE09AE062EF73E00E94DF1936
:1015200085EC96E060917E060E94D81A8FE09AE0E2
:1015300069EE74E00E94DF198FE09AE065EC76E0D6
:101540000E94A2188091C9069091CA06029709F0DC
:1015500027C185EC96E00E94371A70938806609345
:1015600087068FE09AE067E075E00E94DF196091DE
:101570008706709188068FE09AE04AE050E00E946A
:10158000C01940918706509188064A35510599F552
:101590001092CB0685EC96E060E072E00E94561B4C
:1015A00080E496E069E876E047E050E01BD980E40B
:1015B00096E069E876E048E050E014D980E496E0EF
:1015C00069E876E049E050E00DD980E496E069E80A
:1015D00076E04AE050E006D980E496E069E876E0FB
:1015E0004BE050E0FFD880E496E069E876E04CE01C
:1015F00050E0F8D8D5CF80E496E069E876E0F2D8FC
:101600001092CB0685EC96E0B6C081E08093CB06C5
:10161000C7C02B3531F48091380690913906019777
:1016200007C02D35A1F480913806909139060196B6
:1016300090933906809338068FE09AE06AE175E06E
:101640000E94DF196091380670913906FBCD23376F
:1016500021F481E08093CD06A3C04A30510508F003
:10166000B0C08091CF06813009F0ABC08FE09AE026
:10167000622F0E94B4188FE09AE062EF73E00E943C
:10168000DF198FEB96E060917E060E94D81A8FE0FA
:101690009AE06BE275E00E94DF198FE09AE06FEB51
:1016A00076E00E94A2188091C3069091C40602972A
:1016B00009F076C08FEB96E00E94371A613271050F
:1016C000810591050CF04DC0109208078FE09AE05B
:1016D00064E475E00E94DF1960913A0670913B0660
:1016E0008FE09AE04AE050E00E94C0198FE09AE053
:1016F00060E072E00E94DF198FEB96E00E94371ADB
:1017000070933B0660933A0670933D0660933C06E7
:101710008FE09AE069E575E00E94DF198FE09AE0BA
:10172000609108074AE050E00E9466198FE09AE055
:1017300060E072E00E94DF198FE09AE06CE675E0ED
:101740000E94DF1960913A0670913B068FE09AE0A3
:101750004AE050E00E94C0198FE09AE060E072E039
:1017600004C08FE09AE064E875E00E94DF191092EF
:10177000CF068FEB96E060E072E00E94561B10C02F
:1017800081E08093CF060CC08FE09AE060EA75E0BC
:101790000E94DF198FE09AE060917E060E94B418E3
:1017A0008FE09AE00E945616181619060CF4DBCC4E
:1017B0000895213609F09ACE87CE2D3609F029CF2B
:1017C00024CF2936E9F2E0CF8EE997E048EB5BE0E1
:1017D00060E070E0BBD48EE997E06FE07AE020E84B
:1017E00035E240E050E0C8D48EE997E061E0CDD426
:1017F000882381F08091E0079091E10762EB75E02A
:101800000E94DD196AE070E080E090E0A4D58EE9E6
:1018100097E05ED48EE997E060E041E033D564EF75
:1018200071E080E090E097D58FE09AE040E855E2E3
:1018300060E070E00E94D01564EF71E080E090E01D
:101840008AD580ED96E06AE570E0B3D183ED96E04D
:101850006AE570E0AED186ED96E06AE570E0A9D168
:1018600089ED96E06AE570E0A4D18CED96E06AE53A
:1018700070E09FD18FED96E06AE570E09AD182EE3C
:1018800096E06AE570E095D185EE96E06AE570E055
:1018900090D188EE96E06AE570E08BD18BEE96E011
:1018A0006AE570E086D18EEE96E06AE570E081D15F
:1018B00081EF96E06AE570E07CD184EF96E06AE51E
:1018C00070E077D187EF96E06AE570E072D18AEF39
:1018D00096E06AE570E06DD18DEF96E06AE570E024
:1018E00068D180E097E06AE570E063D183E097E03B
:1018F0006AE570E05ED180ED96E067E170E06FD25E
:1019000083ED96E069E170E06AD286ED96E06BE1E6
:1019100070E065D289ED96E06DE170E060D28CED0B
:1019200096E06FE170E05BD28FED96E061E270E0EF
:1019300056D282EE96E063E270E051D285EE96E0F8
:1019400065E270E04CD288EE96E067E270E047D244
:101950008BEE96E069E270E042D28EEE96E06BE2AA
:1019600070E03DD281EF96E06DE270E038D284EF16
:1019700096E06FE270E033D287EF96E061E370E0CB
:101980002ED28AEF96E063E370E029D28DEF96E0E5
:1019900065E370E024D280E097E062E370E01FD25C
:1019A00083E097E064E370E01AD264EF71E080E0D6
:1019B00090E0D1D48FE09AE064EC75E00C94DF19EC
:1019C000FC0180910907803390F480838F5F8093BE
:1019D0000907815090E0FC01EE0FFF1FE80FF91F8F
:1019E000E65FF84F88EB9BE09283818308958FEF49
:1019F00080830895DC018C9190E0FC01EE0FFF1FC5
:101A0000E80FF91FE65FF84F80818F7B80838C9110
:101A10006CE00E94C31D90E0AC01440F551F480FBD
:101A2000591F440F551F440F551F20E030E0C901D6
:101A3000840F951FFC01EE0FFF1FE80FF91FE65FF3
:101A4000F84F808186FD05C02F5F3F4F2C30310558
:101A500071F70895FC0120812033B8F58181992721
:101A600087FD909548E850E0481B590B440F551FDF
:101A7000440F551F6417750784F08281992787FDED
:101A8000909548E552E0481B590B440F551F440FF1
:101A9000551F641775070CF4AB0142505040CA0142
:101AA000AA2797FDA095BA2F880F991FAA1FBB1FC1
:101AB0004FB7F89430E0F901EE0FFF1FE20FF31F6C
:101AC000E65FF84F928381834FBF0895FC018081C8
:101AD0008F3F19F420E030E016C090E0FC01EE0FDB
:101AE000FF1FE80FF91FE65FF84F2181328183E085
:101AF000220F331F8A95E1F7B4E036952795BA9502
:101B0000E1F72E5F3F4FC9010895AF92BF92CF9288
:101B1000DF92EF92FF920F931F938C01D7DF00D0DB
:101B20000F920196AA2797FDA095BA2FF80161811F
:101B3000772767FD709528E830E0261B370B220FCA
:101B4000331F220F331F442737FD4095542F6281E6
:101B5000772767FD7095E8E5EE2EE2E0FE2EE61AA7
:101B6000F70AEE0CFF1CEE0CFF1C0027F7FC00959B
:101B7000102F64EBA62EB12CC12CD12CEDB7FEB7E3
:101B8000A182B282C382D482BC01CD01AA24BB242B
:101B900065010E94F0190F900F900F900F90CB01EC
:101BA0001F910F91FF90EF90DF90CF90BF90AF907B
:101BB0000895AF92BF92CF92DF92EF92FF920F9370
:101BC0001F93CF93DF93EC019B0182E06032780793
:101BD0000CF048C077FF03C020E030E005C0653B53
:101BE000710514F024EB30E000D00F92B901882782
:101BF00077FD8095982F2981332727FD3095E8E8D8
:101C0000AE2EB12CA21AB30AAA0CBB1CAA0CBB1C88
:101C1000CC24B7FCC094DC2CEA81FF27E7FDF095CB
:101C200028E532E02E1B3F0B220F331F220F331FFC
:101C3000442737FD4095542FEDB7FEB721833283FB
:101C40004383548320E030E040E050E004EBE02E9A
:101C5000F12C012D112D0E94F0199B010F900F9076
:101C60000F900F90CE01B901F5DEDF91CF911F915A
:101C70000F91FF90EF90DF90CF90BF90AF900895BD
:101C8000CF92DF92EF92FF921F93CF93DF93EC01FD
:101C9000162F7A0169018881803308F092C0862F5F
:101CA00061E048D4888190E0FC01EE0FFF1FE80F4F
:101CB000F91FE65FF84F1F738081807C812B808342
:101CC00080E292E08E199F0964E070E00E94CF1DCF
:101CD000698380E699E08C199D0964E070E00E94B8
:101CE000CF1D6A83A8818A2F6CE00E94C31D682FD4
:101CF00070E0AB01440F551F460F571F440F551F8F
:101D0000440F551F20E030E0C901840F951FFC01EE
:101D1000EE0FFF1FE80FF91FE65FF84F808186FD89
:101D200044C02F5F3F4F2C30310571F753C01092E4
:101D3000800082E0809381001092850010928400E0
:101D4000B19A80916F00826080936F002EC06230E4
:101D5000710569F41092900082E0809391001092D6
:101D600095001092940088BB809371001EC0633070
:101D7000710569F41092A00082E08093A100109296
:101D8000A5001092A40089BB809372000EC0672B3F
:101D900061F41092200182E08093210110922501CC
:101DA000109224018ABB809373008A2F90E0FC017B
:101DB000EE0FFF1FE80FF91FE65FF84F8081806488
:101DC00080838881DF91CF911F91FF90EF90DF900A
:101DD000CF9008956130710509F0B9CFA8CF40E2E6
:101DE00052E020E639E04CCFEF92FF920F931F9321
:101DF000CF93DF938B017A01EC01DC01A656B84F3B
:101E00008C9187FF04C0FB011182108236C0AE01A5
:101E1000440F551F4C0F5D1F440F551F440F551F96
:101E20002C91332727FD3095240F351F809109070A
:101E300090E0281739070CF58C91992787FD90952C
:101E4000840F951FFC01EE0FFF1FE80FF91FE65FDF
:101E5000F84F808186FF11C08C91992787FD90955E
:101E6000840F951FFC01EE0FFF1FE80FF91FE65FBF
:101E7000F84F80818F7360E010D4DE01A656B84F12
:101E80008C918F5F8C93AE01440F551F4C0F5D1FDB
:101E9000440F551F440F551F2C91332727FD3095B4
:101EA000240F351F8091090790E0281739070CF09F
:101EB0004CC08C918C300CF048C0F80120813181ED
:101EC0008C91992787FD9095840F951FFC01EE0F4B
:101ED000FF1FE80FF91FE65FF84F81819281280FFD
:101EE000391FF701318320838C91992787FD9095C5
:101EF000840F951FFC01EE0FFF1FE80FF91FE65F2F
:101F0000F84F808186FF29C08C91992787FD909595
:101F1000840F951FFC01EE0FFF1FE80FF91FE65F0E
:101F2000F84F80818F7361E0B8D317C080E49CE9DB
:101F300004C0F801808191810496F7019183808328
:101F4000C656D84F8FEF888308C0F80180819181F1
:101F5000049680549C4950F3ECCFDF91CF911F91B0
:101F60000F91FF90EF9008951F920F920FB60F926E
:101F70000BB60F9211242F933F934F935F936F9360
:101F80007F938F939F93AF93BF93EF93FF9380E0E3
:101F900090E064E271E048E251E026DFFF91EF91CA
:101FA000BF91AF919F918F917F916F915F914F9171
:101FB0003F912F910F900BBE0F900FBE0F901F906F
:101FC00018951F920F920FB60F920BB60F92112415
:101FD0002F933F934F935F936F937F938F939F9331
:101FE000AF93BF93EF93FF9383E090E064EA70E0D8
:101FF00048EA50E0F9DEFF91EF91BF91AF919F91D8
:102000008F917F916F915F914F913F912F910F90A1
:102010000BBE0F900FBE0F901F9018951F920F923E
:102020000FB60F920BB60F9211242F933F934F933D
:102030005F936F937F938F939F93AF93BF93EF9330
:10204000FF9382E090E064E970E048E950E0CCDE84
:10205000FF91EF91BF91AF919F918F917F916F9180
:102060005F914F913F912F910F900BBE0F900FBE3C
:102070000F901F9018951F920F920FB60F920BB6EC
:102080000F9211242F933F934F935F936F937F93FE
:102090008F939F93AF93BF93EF93FF9381E090E073
:1020A00064E870E048E850E09FDEFF91EF91BF9157
:1020B000AF919F918F917F916F915F914F913F91E0
:1020C0002F910F900BBE0F900FBE0F901F90189581
:1020D0000895FC01EE5BFF4FA081B181ED91FC9171
:1020E00011970680F781E02DCD0119950895FC0127
:1020F000EE5BFF4FA081B181ED91FC9111970480BF
:10210000F581E02DCD01199508951092A407109244
:10211000A5071092A6071092A7071092A807109281
:10212000A9071092AA071092AB071092AC07109261
:10213000AD071092AE071092AF071092B007109241
:10214000B1071092B2071092B3070895FC01EC5B3F
:10215000FF4F1082118212821382E454F0401282E7
:10216000138214821582411551056105710519F01C
:10217000CB01BA01F0C00895FC01EE5BFF4F718303
:102180006083CB01BA01A9010BC5CF93DF93EC01AA
:10219000662331F013C063E070E080E090E0DBD0B4
:1021A000CCD02A813B814C815D81621B730B840BF7
:1021B000950B613271058105910568F3BED06A8384
:1021C0007B838C839D8381E0DF91CF910895FF9283
:1021D0000F931F938C01F62E61E0D7DF0E5B1F4F2C
:1021E000F801808191816BE176E00E94DD19F801B0
:1021F000808191816F2D4AE050E00E945519F801CD
:102200008081918162E276E00E94DD1962E370E0F4
:1022100080E090E0A0D01F910F91FF9008950F9360
:102220001F93CF93DF93EC01062F8E89882309F14A
:10223000CE015DDF8823C1F41EC0CE014ADF182F16
:102240008836B9F0893628F4883561F0833661F430
:1022500005C0813771F0863739F40EC0CE01602F8A
:10226000B6DF0AC01E8A05C0CE0141DF882329F7E8
:1022700002C013E601C015E6812FDF91CF911F91B7
:102280000F9108951F93CF93DF93EC01142F6623D2
:1022900039F081E08E8BCE0160E0C1DF8336D9F763
:1022A0001E8BDF91CF911F9108951F920F920FB651
:1022B0000F9211242F933F938F939F93AF93BF93CC
:1022C0008091EA079091EB07A091EC07B091ED07A0
:1022D0003091EE070196A11DB11D232F2D5F2D37E3
:1022E00020F02D570196A11DB11D2093EE0780937C
:1022F000EA079093EB07A093EC07B093ED0780916A
:10230000E6079091E707A091E807B091E9070196E9
:10231000A11DB11D8093E6079093E707A093E807FE
:10232000B093E907BF91AF919F918F913F912F910A
:102330000F900FBE0F901F9018958FB7F8942091B3
:10234000EA073091EB074091EC075091ED078FBF02
:10235000B901CA0108959B01AC017FB7F89480913F
:10236000E6079091E707A091E807B091E90766B505
:10237000A89B05C06F3F19F00196A11DB11D7FBF3D
:10238000BA2FA92F982F8827860F911DA11DB11D47
:1023900062E0880F991FAA1FBB1F6A95D1F7BC0185
:1023A0002DC0FFB7F8948091E6079091E707A091C0
:1023B000E807B091E907E6B5A89B05C0EF3F19F023
:1023C0000196A11DB11DFFBFBA2FA92F982F8827F5
:1023D0008E0F911DA11DB11DE2E0880F991FAA1F4C
:1023E000BB1FEA95D1F7861B970B885E9340C8F216
:1023F000215030404040504068517C4F21153105FC
:102400004105510571F60895789484B5826084BDC4
:1024100084B5816084BD85B5826085BD85B58160E8
:1024200085BDEEE6F0E0808181608083E1E8F0E048
:102430001082808182608083808181608083E0E877
:10244000F0E0808181608083E1EBF0E08081846056
:102450008083E0EBF0E0808181608083E1E9F0E05F
:10246000808182608083808181608083E0E9F0E008
:10247000808181608083E1EAF0E0808182608083F6
:10248000808181608083E0EAF0E0808181608083E8
:10249000E1E2F1E0808182608083808181608083DD
:1024A000E0E2F1E0808181608083EAE7F0E0808112
:1024B000846080838081826080838081816080836A
:1024C0008081806880831092C1000895382F863300
:1024D00008F0365320917B00832F8695869586954C
:1024E00090E08170907043E0880F991F4A95E1F762
:1024F000277F282B20937B0037708091660682957A
:10250000880F880F807C832B80937C0080917A00D9
:10251000806480937A0080917A0086FDFCCF2091C0
:10252000780040917900942F80E030E0282B392BFF
:10253000C9010895CF93DF93482F50E0CA01865612
:102540009E4FFC0134914C5A5E4FFA0184918823CE
:1025500069F190E0880F991FFC01EA5FFE4FA59199
:10256000B491FC01E05EFE4FC591D491662351F415
:102570002FB7F8948C91932F909589238C93888111
:1025800089230BC0623061F42FB7F8948C91932F9C
:10259000909589238C938881832B88832FBF06C0D5
:1025A0009FB7F8948C91832B8C939FBFDF91CF9131
:1025B0000895893009F449C08A30A0F4843051F17B
:1025C000853040F4823079F1833000F5813009F0B4
:1025D00063C026C0873079F1883098F5863009F0DD
:1025E0005BC025C08D3009F442C08E3028F48B309A
:1025F000B1F18C30C0F52DC0803109F442C0813179
:1026000009F445C08F3009F047C037C08091800081
:102610008F7703C0809180008F7D80938000089524
:1026200084B58F7702C084B58F7D84BD0895809175
:10263000B0008F7703C08091B0008F7D8093B00091
:102640000895809190008F7707C0809190008F7DD2
:1026500003C080919000877F8093900008958091BF
:10266000A0008F7707C08091A0008F7D03C080916C
:10267000A000877F8093A0000895809120018F772C
:1026800003C0809120018F7D809320010895809167
:102690002001877F809320010895FF920F931F935D
:1026A000F62E482F50E0CA0180529E4FFC01249123
:1026B000CA0186569E4FFC0114914C5A5E4FFA0196
:1026C00004910023C1F0222311F0822F72DFE02F4A
:1026D000F0E0EE0FFF1FE05EFE4FA591B4919FB7B3
:1026E000F894FF2021F48C911095812302C08C91E5
:1026F000812B8C939FBF1F910F91FF900895089598
:102700001F920F920FB60F920BB60F9211242F93B8
:102710003F934F938F939F93EF93FF938091C000CC
:1027200082FD1DC04091C60020912F0830913008D5
:102730002F5F3F4F2F733070809131089091320896
:102740002817390771F0E0912F08F0913008E15116
:10275000F84F40833093300820932F0802C08091B7
:10276000C600FF91EF919F918F914F913F912F91D3
:102770000F900BBE0F900FBE0F901F9018950895ED
:102780001F920F920FB60F920BB60F9211242F9338
:102790003F934F938F939F93EF93FF938091C80044
:1027A00082FD1DC04091CE002091B7083091B8083D
:1027B0002F5F3F4F2F7330708091B9089091BA0806
:1027C0002817390771F0E091B708F091B808E95877
:1027D000F74F40833093B8082093B70802C0809128
:1027E000CE00FF91EF919F918F914F913F912F914B
:1027F0000F900BBE0F900FBE0F901F90189508956D
:102800001F920F920FB60F920BB60F9211242F93B7
:102810003F934F938F939F93EF93FF938091D000BB
:1028200082FD1DC04091D60020913F0930914009A2
:102830002F5F3F4F2F733070809141099091420973
:102840002817390771F0E0913F09F0914009E150F4
:10285000F74F40833093400920933F0902C0809195
:10286000D600FF91EF919F918F914F913F912F91C2
:102870000F900BBE0F900FBE0F901F9018950895EC
:102880001F920F920FB60F920BB60F9211242F9337
:102890003F934F938F939F93EF93FF9380913001DA
:1028A00082FD1DC0409136012091C7093091C809B1
:1028B0002F5F3F4F2F7330708091C9099091CA09E3
:1028C0002817390771F0E091C709F091C809E95755
:1028D000F64F40833093C8092093C70902C0809106
:1028E0003601FF91EF919F918F914F913F912F91E1
:1028F0000F900BBE0F900FBE0F901F901895E09198
:102900001B0AF0911C0AE05CFF4F8191919120819C
:102910003181805C9F4F821B930B60E470E00E94CA
:10292000CF1D892B09F0EBDEE0913D0AF0913E0AC4
:10293000E05CFF4F8191919120813181805C9F4FBC
:10294000821B930B60E470E00E94CF1D892B09F07D
:1029500016DFE0915F0AF091600AE05CFF4F819121
:10296000919120813181805C9F4F821B930B60E4A9
:1029700070E00E94CF1D892B09F041DFE091810AB0
:10298000F091820AE05CFF4F819191912081318129
:10299000805C9F4F821B930B60E470E00E94CF1D10
:1029A000892B09F06CCF08951F920F920FB60F92EA
:1029B0000BB60F9211242F933F938F939F93EF9316
:1029C000FF9320917308309174088091750890915D
:1029D00076082817390731F48091C1008F7D8093E4
:1029E000C10014C0E0917508F0917608ED5CF74FD6
:1029F0002081809175089091760801968F73907070
:102A000090937608809375082093C600FF91EF910C
:102A10009F918F913F912F910F900BBE0F900FBE02
:102A20000F901F9018951F920F920FB60F920BB632
:102A30000F9211242F933F938F939F93EF93FF93C4
:102A40002091FB083091FC088091FD089091FE08D0
:102A50002817390731F48091C9008F7D8093C90010
:102A600014C0E091FD08F091FE08E554F74F208175
:102A70008091FD089091FE0801968F73907090935D
:102A8000FE088093FD082093CE00FF91EF919F9167
:102A90008F913F912F910F900BBE0F900FBE0F9013
:102AA0001F9018951F920F920FB60F920BB60F92B0
:102AB00011242F933F938F939F93EF93FF93209134
:102AC000830930918409809185099091860928179E
:102AD000390731F48091D1008F7D8093D10014C0EB
:102AE000E0918509F0918609ED5BF64F2081809198
:102AF00085099091860901968F739070909386094D
:102B0000809385092093D600FF91EF919F918F913B
:102B10003F912F910F900BBE0F900FBE0F901F9003
:102B200018951F920F920FB60F920BB60F921124A9
:102B30002F933F938F939F93EF93FF9320910B0AD3
:102B400030910C0A80910D0A90910E0A28173907CE
:102B500031F4809131018F7D8093310114C0E09177
:102B60000D0AF0910E0AE553F64F208180910D0A6F
:102B700090910E0A01968F73907090930E0A809335
:102B80000D0A20933601FF91EF919F918F913F9114
:102B90002F910F900BBE0F900FBE0F901F901895A6
:102BA000AF92BF92DF92EF92FF920F931F93CF935A
:102BB000DF93EC017A018B01DD24403081EE580770
:102BC00080E0680780E0780711F0DD24D39491E07D
:102BD000A92EB12CEC89FD89DD2069F0C50108A082
:102BE00002C0880F991F0A94E2F7808360E079E0C1
:102BF0008DE390E005C0108260E874E88EE190E01B
:102C0000A8019701DFD721503040404050405695F1
:102C100047953795279580E12030380720F0DD2053
:102C200011F0DD24D7CFE889F9893083EA89FB895F
:102C3000208319A2EE89FF89408121E030E0C9019B
:102C40000C8C02C0880F991F0A94E2F7482B40832E
:102C5000EE89FF894081C9010D8C02C0880F991F40
:102C60000A94E2F7482B4083EE89FF894081C9012D
:102C70000E8C02C0880F991F0A94E2F7482B4083FC
:102C8000EE89FF8980810F8C02C0220F331F0A94C6
:102C9000E2F7209528232083DF91CF911F910F9198
:102CA000FF90EF90DF90BF90AF900895DC011C96ED
:102CB000ED91FC911D97E05CFF4F819191912081F6
:102CC0003181805C9F4F821B930B60E470E067C78B
:102CD000DC011C96ED91FC911D97E05CFF4F20817B
:102CE0003181E054F040DF01AE5BBF4F8D919C918C
:102CF00011972817390719F42FEF3FEF07C08D916F
:102D00009C91E80FF91F8081282F30E0C9010895B8
:102D1000DC011C96ED91FC911D97E05CFF4F20813A
:102D20003181E054F040DF01AE5BBF4F8D919C914B
:102D300011972817390719F42FEF3FEF10C08D9125
:102D40009C911197E80FF91F20818D919C9111970B
:102D500001968F73907011969C938E9330E0C90109
:102D60000895DC0191968C919197882339F05496BF
:102D7000ED91FC915597808186FFF9CF91961C9239
:102D80000895CF93DF93EC01EE85FF85E05CFF4F64
:102D900020813181E054F0402F5F3F4F2F7330701E
:102DA000DF01AE5BBF4F8D919C91119728173907BA
:102DB000D1F3E05CFF4F80819181E054F040E80F57
:102DC000F91F6083EE85FF85E05CFF4F3183208330
:102DD000EE89FF89208181E090E00F8C02C0880F8E
:102DE000991F0A94E2F7282B208381E089A3EC89BC
:102DF000FD8980818064808381E090E0DF91CF91C4
:102E000008951F931092120A1092110A28EE33E0CF
:102E100040E050E02093130A3093140A4093150ABF
:102E20005093160A61E776E07093100A60930F0AD8
:102E30008FEE97E090931C0A80931B0A83E398E03F
:102E400090931E0A80931D0A85EC90E09093200ACF
:102E500080931F0A84EC90E09093220A8093210AC9
:102E600080EC90E09093240A8093230A81EC90E018
:102E70009093260A8093250A82EC90E09093280A8A
:102E80008093270A86EC90E090932A0A8093290A7F
:102E900014E010932B0AB3E0B0932C0AA7E0A093A0
:102EA0002D0AF5E0F0932E0AE1E0E0932F0A10924C
:102EB000340A1092330A2093350A3093360A40932D
:102EC000370A5093380A7093320A6093310A87E7C1
:102ED00098E090933E0A80933D0A8BEB98E09093A4
:102EE000400A80933F0A8DEC90E09093420A8093D1
:102EF000410A8CEC90E09093440A8093430A88EC5A
:102F000090E09093460A8093450A89EC90E0909374
:102F1000480A8093470A8AEC90E090934A0A80938B
:102F2000490A8EEC90E090934C0A80934B0A1093E0
:102F30004D0AB0934E0AA0934F0AF093500AE093C3
:102F4000510A1092560A1092550A2093570A30934C
:102F5000580A4093590A50935A0A7093540A60933E
:102F6000530A8FEF98E09093600A80935F0A83E49E
:102F700099E09093620A8093610A85ED90E09093C6
:102F8000640A8093630A84ED90E09093660A8093CC
:102F9000650A80ED90E09093680A8093670A81ED5E
:102FA00090E090936A0A8093690A82ED90E0909392
:102FB0006C0A80936B0A86ED90E090936E0A809382
:102FC0006D0A10936F0AB093700AA093710AF09380
:102FD000720AE093730A1092780A1092770A20938B
:102FE000790A30937A0A40937B0A50937C0A709353
:102FF000760A6093750A87E899E09093820A809335
:10300000810A8BEC99E09093840A8093830A85E38C
:1030100091E09093860A8093850A84E391E09093EF
:10302000880A8093870A80E391E090938A0A8093CC
:10303000890A81E391E090938C0A80938B0A82E362
:1030400091E090938E0A80938D0A86E391E09093AD
:10305000900A80938F0A1093910AB093920AA093DA
:10306000930AF093940AE093950A1F9108950895A6
:10307000CF93DF93C9D9FBDF0E94E40BCFE7D4E104
:103080000E94B2082097E1F33ADCFACFCF92DF92A8
:10309000EF92FF920F931F93CF93DF937C016B010D
:1030A0008A01C0E0D0E00FC0D6016D916D01D7015B
:1030B000ED91FC910190F081E02DC7011995C80FA9
:1030C000D91F015010400115110571F7CE01DF9194
:1030D000CF911F910F91FF90EF90DF90CF900895C7
:1030E000CF93DF93FB01EC01A881B98160817181ED
:1030F000448155811296ED91FC9113971995DF91BA
:10310000CF910895EF92FF920F931F938C01DC01F2
:10311000ED91FC910190F081E02D6DE019957C011D
:10312000D801ED91FC910190F081E02DC8016AE099
:1031300019959C012E0D3F1DC9011F910F91FF9004
:10314000EF900895EF92FF920F931F937C01C8DFD9
:103150008C01C701D7DF9C01200F311FC9011F91CE
:103160000F91FF90EF900895EF92FF920F931F93AE
:103170007C01DC01ED91FC910190F081E02D19952D
:103180008C01C701BFDF080F191FC8011F910F91E4
:10319000FF90EF900895CF93DF93EC0161157105D7
:1031A00019F420E030E00FC0DB010D900020E9F7BA
:1031B0001197A61BB70BE881F9810280F381E02DFE
:1031C000AD0119959C01C901DF91CF9108954F92EE
:1031D0005F927F928F929F92AF92BF92CF92DF9237
:1031E000EF92FF920F931F93DF93CF93CDB7DEB78C
:1031F000A1970FB6F894DEBF0FBECDBF2C01742E81
:10320000CB01223008F42AE019A231E2C32ED12CDE
:10321000CC0EDD1E822E9924AA24BB24672D752F87
:10322000A5019401CFD479018A01C801B701A50194
:1032300094018AD4472D461B0894C108D1084A300E
:1032400014F4405D01C0495CF6014083E114F104CF
:103250000105110521F07E2C5F2DC801DFCFC201D1
:10326000B60199DFA1960FB6F894DEBF0FBECDBFB1
:10327000CF91DF911F910F91FF90EF90DF90CF9052
:10328000BF90AF909F908F907F905F904F900895E8
:10329000DC012115310541F4ED91FC910190F081A3
:1032A000E02D642F1995089592CFEF92FF920F931E
:1032B0001F939A01E62EFF2400E010E0B801A70159
:1032C000E7DF1F910F91FF90EF900895CF92DF926B
:1032D000EF92FF920F931F936C01E62E9A01FF2449
:1032E00000E010E0B801A701D3DF8C01C6010ADFBE
:1032F000080F191FC8011F910F91FF90EF90DF90E9
:10330000CF900895CF92DF92EF92FF920F931F9389
:10331000CF93DF93EC016A017B012115310541F464
:10332000E881F9810190F081E02D642F19951DC08D
:103330002A303105C9F477FF16C0E881F981019080
:10334000F081E02D6DE219958C0144275527BA01D3
:103350004C195D096E097F09CE012AE038DF98011A
:10336000280F391F03C02AE032DF9C01C901DF9119
:10337000CF911F910F91FF90EF90DF90CF90089524
:10338000CF92DF92EF92FF920F931F936C017B011C
:103390009A010027F7FC0095102FB801A701B2DFB2
:1033A0008C01C601AFDE080F191FC8011F910F91D4
:1033B000FF90EF90DF90CF900895EDCE0895EF92BB
:1033C000FF920F931F937C01E6DE8C01C7019ADE0A
:1033D000080F191FC8011F910F91FF90EF900895DA
:1033E0002F923F924F925F926F927F928F929F9215
:1033F000AF92BF92CF92DF92EF92FF920F931F9303
:10340000DF93CF93CDB7DEB73B014C0119012A0101
:103410006E897F89888D998D6A197B098C099D0930
:10342000621A730A840A950AA40193018DD3E218E3
:10343000F30804091509A8019701E6D32A0D3B1DDD
:103440004C1D5D1DB901CA01CF91DF911F910F91F4
:10345000FF90EF90DF90CF90BF90AF909F908F90B4
:103460007F906F905F904F903F902F900895FC0158
:1034700080819181009729F420E030E040E050E025
:1034800004C00E9445019B01AC01B901CA01089525
:103490000F931F93CF93DF93EC018B016F5F7F4FEF
:1034A0008881998174D2009711F480E005C09983D6
:1034B00088831B830A8381E0DF91CF911F910F9155
:1034C0000895CF93DF93EC0188819981892B29F0AE
:1034D0008A819B818617970758F4CE01D9DF88230C
:1034E00041F08C819D81892B19F4E881F98110824A
:1034F00081E0DF91CF910895EF92FF920F931F9398
:10350000CF93DF93EC017B016C817D81E114F104A9
:10351000B9F04115510591F08A01060F171FB80146
:10352000D0DF882369F0888199812C813D81820FC9
:10353000931FB7010E9474011D830C8381E001C0B9
:1035400080E0DF91CF911F910F91FF90EF90089550
:10355000EF92FF920F931F93DF93CF93CDB7DEB718
:1035600028970FB6F894DEBF0FBECDBF7C01CB010C
:103570008E010F5F1F4FB8014AE050E00E947B01AF
:10358000F80101900020E9F73197E01BF10BC7012A
:10359000B801AF01B1DF28960FB6F894DEBF0FBEB9
:1035A000CDBFCF91DF911F910F91FF90EF900895C4
:1035B000DF93CF930F920F92CDB7DEB769831A8254
:1035C000BE016F5F7F4F41E050E096DF0F900F909C
:1035D000CF91DF910895CF93DF93EC01888199819A
:1035E000009709F03CD1198218821D821C821B822F
:1035F0001A82DF91CF9108950F931F93182F092FEF
:10360000A7DF882319F4812F902FE5DF812F902FDA
:103610001F910F9108950F931F93182F092FFB01EE
:10362000608171814481558167DF882319F4812F7E
:10363000902FD1DF812F902F1F910F910895EF923E
:10364000FF920F931F93CF93DF93EC017B018A01CD
:10365000BA0137DF882319F4CE01BDDF07C01D830F
:103660000C8388819981B7010E947401CE01DF919A
:10367000CF911F910F91FF90EF900895CF93DF931B
:10368000EC01198218821B821A821D821C8261152C
:10369000710549F0DB010D900020E9F71197A61B99
:1036A000B70BAD01CCDFDF91CF9108950F931F933E
:1036B000182F092F6115710551F0DB010D900020C5
:1036C000E9F71197A61BB70BAD01B9DF01C083DF86
:1036D000812F902F1F910F910895CF93DF93EC01CD
:1036E000FB018617970751F06081718161157105A3
:1036F00021F044815581A3DF01C06DDFCE01DF9150
:10370000CF910895FC0111821082138212821582DA
:103710001482E3CFFC0180819181A1C0FC018081F2
:1037200091819DC00F931F93CF93DF93BC01823093
:10373000910510F462E070E0E091990AF0919A0A24
:1037400040E050E0A0E0B0E024C080819181861785
:103750009707D0F08617970771F4828193811097AD
:1037600029F013969C938E9312972CC090939A0AEB
:103770008093990A27C04115510519F084179507C0
:1037800018F48D01AC01EF01DF01828193819C016E
:10379000F9013097D1F641155105F9F0CA01861BA0
:1037A000970B8430910580F48A819B810115110566
:1037B00021F0F8019383828304C090939A0A809346
:1037C000990AFE01329645C0FE01E80FF91F619388
:1037D00071930297998388833CC08091970A909156
:1037E000980A892B41F48091690690916A0690931A
:1037F000980A8093970A40916B0650916C06411588
:10380000510541F44DB75EB7809167069091680607
:10381000481B590B2091970A3091980A24173507B5
:10382000B0F4CA01821B930B8617970780F0AB0197
:103830004E5F5F4F8417950750F0420F531F509310
:10384000980A4093970AF9016193719302C0E0E0EE
:10385000F0E0CF01DF91CF911F910F910895CF93A9
:10386000DF939C01009709F48FC0EC0122971B8223
:103870001A826091990A70919A0A6115710581F412
:1038800088819981820F931F2091970A3091980A1D
:103890002817390739F5D093980AC093970A74C04E
:1038A000DB0140E050E0AC17BD0708F1BB83AA8301
:1038B000FE0121913191E20FF31FAE17BF0779F49A
:1038C0008D919C911197280F391F2E5F3F4F39839F
:1038D000288312968D919C9113979B838A8341151F
:1038E000510571F4D0939A0AC093990A4DC012966B
:1038F0008D919C911397AD01009711F0DC01D3CF0E
:10390000DA011396DC93CE931297FA01219131914B
:10391000E20FF31FCE17DF0769F488819981280F22
:10392000391F2E5F3F4FFA01318320838A819B81AB
:1039300093838283E0E0F0E0DB0112968D919C910D
:103940001397009719F0BC01FD01F6CFAB014E5F54
:103950005F4FDB018D919C91840F951F2091970AF9
:103960003091980A2817390779F4309729F4109282
:103970009A0A1092990A02C0138212824250504051
:103980005093980A4093970ADF91CF9108956F92D0
:103990007F928F929F92AF92BF92CF92DF92EF92DF
:1039A000FF920F931F93CF93DF938C01009721F425
:1039B000CB01B8DE8C01B8C08EEFE82E8FEFF82E69
:1039C000E00EF11E4801860E971E8E149F0408F427
:1039D000A9C0D7014D915C91119746175707B0F0D8
:1039E0004530510508F4A0C0CA010497861797070F
:1039F00008F49AC042505040461B570BF4014193C3
:103A000051936D937C93CF012ADF8EC05B01A41A82
:103A1000B50A3801640E751EA091990AB0919A0AF0
:103A2000E0E0F0E0CC24DD2447C0A615B705A9F5F9
:103A3000CD91DC911197CE0102968A159B0568F114
:103A4000CE018A199B09029612962C911297139611
:103A50003C91059758F0F40122833383CA19DB099E
:103A6000D183C083D7016D937C9309C04E5F5F4FB4
:103A70004C0F5D1FF70151834083C901FC01C11444
:103A8000D10431F0D6011396FC93EE9312974CC0FB
:103A9000F0939A0AE093990A47C08D919C911197EF
:103AA000E817F90708F4FC016D0112968C91129742
:103AB00013969C919C01D901109709F0B6CF809183
:103AC000970A9091980A86159705E9F4E617F70783
:103AD000D0F420916B0630916C062115310541F42C
:103AE0002DB73EB78091670690916806281B390B69
:103AF00082169306B8F49092980A8092970AF7017A
:103B00007183608311C0CB010DDEEC01009751F091
:103B1000D7014D915C91B8010E946B01C8019FDEF5
:103B20008E0102C000E010E0C801DF91CF911F912B
:103B30000F91FF90EF90DF90CF90BF90AF909F904C
:103B40008F907F906F900895629FD001739FF001D6
:103B5000829FE00DF11D649FE00DF11D929FF00D1D
:103B6000839FF00D749FF00D659FF00D9927729F54
:103B7000B00DE11DF91F639FB00DE11DF91FBD01DF
:103B8000CF0111240895991B79E004C0991F96175D
:103B900008F0961B881F7A95C9F78095089597FBC2
:103BA000092E07260AD077FD04D049D006D0002080
:103BB0001AF4709561957F4F0895F6F79095819569
:103BC0009F4F0895A1E21A2EAA1BBB1BFD010DC039
:103BD000AA1FBB1FEE1FFF1FA217B307E407F507BD
:103BE00020F0A21BB30BE40BF50B661F771F881F99
:103BF000991F1A9469F760957095809590959B012F
:103C0000AC01BD01CF01089597FB092E05260ED00A
:103C100057FD04D0D7DF0AD0001C38F450954095EA
:103C2000309521953F4F4F4F5F4F0895F6F7909590
:103C30008095709561957F4F8F4F9F4F0895AA1B78
:103C4000BB1B51E107C0AA1FBB1FA617B70710F087
:103C5000A61BB70B881F991F5A95A9F780959095B9
:103C6000BC01CD010895EE0FFF1F0590F491E02DEA
:103C7000199412E0CCE2D2E003C0FE01F6DF2296F6
:0A3C8000CE32D107D1F7F894FFCF40
:103C8A0000526563656976656420616E676C653AA2
:103C9A0020004D6F74696F6E20636F6D706C657470
:103CAA00652E00616E676C6573206E6F7720726592
:103CBA0061642061733A20005265636569766564C0
:103CCA00206D6F74696F6E206E756D6265723A2031
:103CDA0000434153452031202D2073656E64696E7F
:103CEA006720616E676C65733A2000434153452033
:103CFA0032202D2073656E64696E6720616E676C71
:103D0A0065733A2000434153452033202D207365C3
:103D1A006E64696E6720616E676C65733A20004352
:103D2A004153452034202D2073656E64696E6720E7
:103D3A00616E676C65733A20004341534520352014
:103D4A002D2073656E64696E6720616E676C65739A
:103D5A003A2000434153452036202D2073656E6476
:103D6A00696E6720616E676C65733A2000556E64F0
:103D7A006566696E6564206D6F74696F6E2E004F9B
:103D8A007574206F6620626F756E64732E20004D05
:103D9A006F76696E6720746F3A20006973206F75B9
:103DAA0074206F6620626F756E64732E2000426500
:103DBA00666F7265206D6F76653A2000416674659C
:103DCA0072206D6F76653A20004166746572206DC7
:103DDA006F7665206261636B3A200053656C656398
:103DEA0074656420736572766F3A2000616E676C41
:103DFA00655B005D203D20003B002A2000506F7467
:103E0A00656E74696F6D65746572206973204F46BB
:103E1A004600736572766F5F696E74657276616C5F
:103E2A0020726576657274656420746F3A2000505A
:103E3A006F74656E74696F6D65746572206973203D
:103E4A004F4E00736572766F5F696E746572766144
:103E5A006C20697320726561642061733A20002EB8
:103E6A002E2E7374725F616E676C65207761733A88
:103E7A0020002E2E2E6973206469676974002E2E25
:103E8A002E7374725F616E676C65204953204E4FC2
:103E9A00573A20007374725F616E676C65204953EC
:103EAA00206C656E677468203300696E636F6D6994
:103EBA006E675F616E676C652069733A20002E2E0B
:103ECA002E7374725F7370656564207761733A202C
:103EDA00002E2E2E7374725F7370656564204953C9
:103EEA00204E4F573A20007374725F737065656491
:103EFA00204953206C656E677468203300737472AE
:103F0A005F73706565642069733A20007365727621
:103F1A006F5F7370656564206973206E6F773A20EE
:103F2A00002E2E2E7374725F73656C65637420495C
:103F3A0053204E4F573A200073656C65637465646D
:103F4A005F736572766F204953204E4F573A2000AF
:103F5A00496E76616C696420736572766F20736549
:103F6A006C656374696F6E2E002E2E2E7374725FE9
:103F7A006D6F74696F6E5F707265736574204953F3
:103F8A00204E4F573A20006D6F74696F6E5F7072E2
:103F9A00657365742069733A2000536572766F20E1
:103FAA0073706565642069733A20002E2E2E73742F
:103FBA00725F696E74657276616C204953204E4F48
:103FCA00573A2000736572766F5F696E7465727610
:103FDA00616C207761733A2000506F74656E746962
:103FEA006F6D657465722069733A20007365727625
:103FFA006F5F696E74657276616C204953204E4F0B
:10400A00573A2000496E76616C696420696E74655E
:10401A007276616C2073656C656374696F6E2E00CD
:10402A00496E76616C696420726571756573743A5C
:10403A002000564D4450565F317C315F564D4450F6
:10404A00560D0A0052656164792E20004572726F1E
:10405A00723A20417474656D707420746F207365B0
:10406A0074206120726561642D6F6E6C79207661AF
:10407A00726961626C65206F722064617461207478
:10408A00797065206E6F7420737570706F727465C5
:10409A00640D0A005F564D44504500564D44504346
:1040AA005F005F564D4450430D0A00564D4450453B
:1040BA005F003A323A003A000A0002000200110098
:1040CA005A005A005A005A005A005A005A005A0016
:1040DA005A005A005A005A005A005A005A005A0006
:1040EA005A005A0002000180009B0A0000000000EA
:0E40FA0000C1164618561688166816B1160034
:00000001FF
